{
  "contractName": "MyContract",
  "abi": [
    {
      "inputs": [],
      "name": "admin",
      "outputs": [
        {
          "internalType": "address payable",
          "name": "",
          "type": "address"
        }
      ],
      "stateMutability": "view",
      "type": "function",
      "constant": true
    },
    {
      "inputs": [],
      "name": "balanceWei",
      "outputs": [
        {
          "internalType": "uint256",
          "name": "",
          "type": "uint256"
        }
      ],
      "stateMutability": "view",
      "type": "function",
      "constant": true
    },
    {
      "inputs": [
        {
          "internalType": "uint256",
          "name": "",
          "type": "uint256"
        }
      ],
      "name": "bookings",
      "outputs": [
        {
          "internalType": "address",
          "name": "bookerAddress",
          "type": "address"
        },
        {
          "internalType": "uint256",
          "name": "bookedTimeStamp",
          "type": "uint256"
        }
      ],
      "stateMutability": "view",
      "type": "function",
      "constant": true
    },
    {
      "inputs": [
        {
          "internalType": "uint256",
          "name": "",
          "type": "uint256"
        }
      ],
      "name": "tikets",
      "outputs": [
        {
          "internalType": "address",
          "name": "",
          "type": "address"
        }
      ],
      "stateMutability": "view",
      "type": "function",
      "constant": true
    },
    {
      "inputs": [],
      "name": "transferBalanceToAdmin",
      "outputs": [],
      "stateMutability": "nonpayable",
      "type": "function"
    },
    {
      "inputs": [
        {
          "internalType": "uint256",
          "name": "tiketIndex",
          "type": "uint256"
        }
      ],
      "name": "buyTiket",
      "outputs": [
        {
          "internalType": "bool",
          "name": "",
          "type": "bool"
        }
      ],
      "stateMutability": "payable",
      "type": "function",
      "payable": true
    },
    {
      "inputs": [
        {
          "internalType": "uint256",
          "name": "tiketIndex",
          "type": "uint256"
        }
      ],
      "name": "isTicketAvailable",
      "outputs": [
        {
          "internalType": "bool",
          "name": "",
          "type": "bool"
        }
      ],
      "stateMutability": "view",
      "type": "function",
      "constant": true
    },
    {
      "inputs": [
        {
          "internalType": "address",
          "name": "adminAddress",
          "type": "address"
        }
      ],
      "name": "setAdmin",
      "outputs": [],
      "stateMutability": "nonpayable",
      "type": "function"
    },
    {
      "inputs": [
        {
          "internalType": "uint256",
          "name": "tiketIndex",
          "type": "uint256"
        },
        {
          "internalType": "address",
          "name": "toAddress",
          "type": "address"
        }
      ],
      "name": "transferTicket",
      "outputs": [],
      "stateMutability": "nonpayable",
      "type": "function"
    },
    {
      "inputs": [],
      "name": "getTikets",
      "outputs": [
        {
          "internalType": "address[16]",
          "name": "",
          "type": "address[16]"
        }
      ],
      "stateMutability": "view",
      "type": "function",
      "constant": true
    },
    {
      "inputs": [],
      "name": "getBalance",
      "outputs": [
        {
          "internalType": "uint256",
          "name": "",
          "type": "uint256"
        }
      ],
      "stateMutability": "view",
      "type": "function",
      "constant": true
    },
    {
      "inputs": [],
      "name": "getBalanceWei",
      "outputs": [
        {
          "internalType": "uint256",
          "name": "",
          "type": "uint256"
        }
      ],
      "stateMutability": "view",
      "type": "function",
      "constant": true
    },
    {
      "inputs": [
        {
          "internalType": "uint256",
          "name": "tiketIndex",
          "type": "uint256"
        }
      ],
      "name": "bookTicket",
      "outputs": [],
      "stateMutability": "nonpayable",
      "type": "function"
    },
    {
      "inputs": [
        {
          "internalType": "uint256",
          "name": "tiketIndex",
          "type": "uint256"
        }
      ],
      "name": "isBooked",
      "outputs": [
        {
          "internalType": "bool",
          "name": "",
          "type": "bool"
        }
      ],
      "stateMutability": "view",
      "type": "function",
      "constant": true
    }
  ],
  "bytecode": "0x6080604052600060105573c8d55b1aee0af99a99a83cab4b80fe54032b75c2601160006101000a81548173ffffffffffffffffffffffffffffffffffffffff021916908373ffffffffffffffffffffffffffffffffffffffff16021790555034801561006a57600080fd5b506115fc8061007a6000396000f3fe6080604052600436106100dd5760003560e01c8063704b6c021161007f578063be4fb14d11610059578063be4fb14d146102b2578063e8eedc08146102dd578063f520047a1461031a578063f851a44014610345576100dd565b8063704b6c021461022e5780638aeeae49146102575780638f62744414610287576100dd565b80633fd658cb116100bb5780633fd658cb146101745780634d63e206146101b157806352ba15e6146101ee578063679ebf1a14610205576100dd565b806312065fe0146100e25780631c91a65e1461010d5780631dab301e14610136575b600080fd5b3480156100ee57600080fd5b506100f7610370565b6040516101049190610d2f565b60405180910390f35b34801561011957600080fd5b50610134600480360381019061012f9190610d7b565b61038f565b005b34801561014257600080fd5b5061015d60048036038101906101589190610d7b565b610540565b60405161016b929190610de9565b60405180910390f35b34801561018057600080fd5b5061019b60048036038101906101969190610d7b565b610584565b6040516101a89190610e2d565b60405180910390f35b3480156101bd57600080fd5b506101d860048036038101906101d39190610d7b565b6105c2565b6040516101e59190610e48565b60405180910390f35b3480156101fa57600080fd5b506102036105f8565b005b34801561021157600080fd5b5061022c60048036038101906102279190610e8f565b6106fd565b005b34801561023a57600080fd5b5061025560048036038101906102509190610ecf565b610849565b005b610271600480360381019061026c9190610d7b565b61091d565b60405161027e9190610e2d565b60405180910390f35b34801561029357600080fd5b5061029c610b8e565b6040516102a99190610fa7565b60405180910390f35b3480156102be57600080fd5b506102c7610c0f565b6040516102d49190610d2f565b60405180910390f35b3480156102e957600080fd5b5061030460048036038101906102ff9190610d7b565b610c15565b6040516103119190610e2d565b60405180910390f35b34801561032657600080fd5b5061032f610cc3565b60405161033c9190610d2f565b60405180910390f35b34801561035157600080fd5b5061035a610ccd565b6040516103679190610fe4565b60405180910390f35b60003073ffffffffffffffffffffffffffffffffffffffff1631905090565b600081101580156103a15750600f8111155b6103e0576040517f08c379a00000000000000000000000000000000000000000000000000000000081526004016103d79061105c565b60405180910390fd5b600073ffffffffffffffffffffffffffffffffffffffff166000826010811061040c5761040b61107c565b5b0160009054906101000a900473ffffffffffffffffffffffffffffffffffffffff1673ffffffffffffffffffffffffffffffffffffffff1614610484576040517f08c379a000000000000000000000000000000000000000000000000000000000815260040161047b906110f7565b60405180910390fd5b61048d81610584565b156104cd576040517f08c379a00000000000000000000000000000000000000000000000000000000081526004016104c490611163565b60405180910390fd5b336012600083815260200190815260200160002060000160006101000a81548173ffffffffffffffffffffffffffffffffffffffff021916908373ffffffffffffffffffffffffffffffffffffffff16021790555042601260008381526020019081526020016000206001018190555050565b60126020528060005260406000206000915090508060000160009054906101000a900473ffffffffffffffffffffffffffffffffffffffff16908060010154905082565b600060786012600084815260200190815260200160002060010154426105aa91906111b2565b106105b857600090506105bd565b600190505b919050565b600081601081106105d257600080fd5b016000915054906101000a900473ffffffffffffffffffffffffffffffffffffffff1681565b601160009054906101000a900473ffffffffffffffffffffffffffffffffffffffff1673ffffffffffffffffffffffffffffffffffffffff163373ffffffffffffffffffffffffffffffffffffffff1614610688576040517f08c379a000000000000000000000000000000000000000000000000000000000815260040161067f90611232565b60405180910390fd5b601160009054906101000a900473ffffffffffffffffffffffffffffffffffffffff1673ffffffffffffffffffffffffffffffffffffffff166108fc6010549081150290604051600060405180830381858888f193505050501580156106f2573d6000803e3d6000fd5b506000601081905550565b6000821015801561070f5750600f8211155b61074e576040517f08c379a00000000000000000000000000000000000000000000000000000000081526004016107459061129e565b60405180910390fd5b600082601081106107625761076161107c565b5b0160009054906101000a900473ffffffffffffffffffffffffffffffffffffffff1673ffffffffffffffffffffffffffffffffffffffff163373ffffffffffffffffffffffffffffffffffffffff16146107f1576040517f08c379a00000000000000000000000000000000000000000000000000000000081526004016107e89061130a565b60405180910390fd5b80600083601081106108065761080561107c565b5b0160006101000a81548173ffffffffffffffffffffffffffffffffffffffff021916908373ffffffffffffffffffffffffffffffffffffffff1602179055505050565b601160009054906101000a900473ffffffffffffffffffffffffffffffffffffffff1673ffffffffffffffffffffffffffffffffffffffff163373ffffffffffffffffffffffffffffffffffffffff16146108d9576040517f08c379a00000000000000000000000000000000000000000000000000000000081526004016108d090611376565b60405180910390fd5b80601160006101000a81548173ffffffffffffffffffffffffffffffffffffffff021916908373ffffffffffffffffffffffffffffffffffffffff16021790555050565b60008082101580156109305750600f8211155b61096f576040517f08c379a00000000000000000000000000000000000000000000000000000000081526004016109669061129e565b60405180910390fd5b662386f26fc100003410156109b9576040517f08c379a00000000000000000000000000000000000000000000000000000000081526004016109b0906113e2565b60405180910390fd5b600073ffffffffffffffffffffffffffffffffffffffff16600083601081106109e5576109e461107c565b5b0160009054906101000a900473ffffffffffffffffffffffffffffffffffffffff1673ffffffffffffffffffffffffffffffffffffffff1614610a5d576040517f08c379a0000000000000000000000000000000000000000000000000000000008152600401610a549061144e565b60405180910390fd5b3373ffffffffffffffffffffffffffffffffffffffff166012600084815260200190815260200160002060000160009054906101000a900473ffffffffffffffffffffffffffffffffffffffff1673ffffffffffffffffffffffffffffffffffffffff161480610ad35750610ad182610584565b155b610b12576040517f08c379a0000000000000000000000000000000000000000000000000000000008152600401610b09906114e0565b60405180910390fd5b3460106000828254610b249190611500565b925050819055506000600190503360008460108110610b4657610b4561107c565b5b0160006101000a81548173ffffffffffffffffffffffffffffffffffffffff021916908373ffffffffffffffffffffffffffffffffffffffff16021790555080915050919050565b610b96610cf3565b6000601080602002604051908101604052809291908260108015610c05576020028201915b8160009054906101000a900473ffffffffffffffffffffffffffffffffffffffff1673ffffffffffffffffffffffffffffffffffffffff1681526020019060010190808311610bbb575b5050505050905090565b60105481565b60008073ffffffffffffffffffffffffffffffffffffffff1660008360108110610c4257610c4161107c565b5b0160009054906101000a900473ffffffffffffffffffffffffffffffffffffffff1673ffffffffffffffffffffffffffffffffffffffff1614610cba576040517f08c379a0000000000000000000000000000000000000000000000000000000008152600401610cb1906115a6565b60405180910390fd5b60019050919050565b6000601054905090565b601160009054906101000a900473ffffffffffffffffffffffffffffffffffffffff1681565b604051806102000160405280601090602082028036833780820191505090505090565b6000819050919050565b610d2981610d16565b82525050565b6000602082019050610d446000830184610d20565b92915050565b600080fd5b610d5881610d16565b8114610d6357600080fd5b50565b600081359050610d7581610d4f565b92915050565b600060208284031215610d9157610d90610d4a565b5b6000610d9f84828501610d66565b91505092915050565b600073ffffffffffffffffffffffffffffffffffffffff82169050919050565b6000610dd382610da8565b9050919050565b610de381610dc8565b82525050565b6000604082019050610dfe6000830185610dda565b610e0b6020830184610d20565b9392505050565b60008115159050919050565b610e2781610e12565b82525050565b6000602082019050610e426000830184610e1e565b92915050565b6000602082019050610e5d6000830184610dda565b92915050565b610e6c81610dc8565b8114610e7757600080fd5b50565b600081359050610e8981610e63565b92915050565b60008060408385031215610ea657610ea5610d4a565b5b6000610eb485828601610d66565b9250506020610ec585828601610e7a565b9150509250929050565b600060208284031215610ee557610ee4610d4a565b5b6000610ef384828501610e7a565b91505092915050565b600060109050919050565b600081905092915050565b6000819050919050565b610f2581610dc8565b82525050565b6000610f378383610f1c565b60208301905092915050565b6000602082019050919050565b610f5981610efc565b610f638184610f07565b9250610f6e82610f12565b8060005b83811015610f9f578151610f868782610f2b565b9650610f9183610f43565b925050600181019050610f72565b505050505050565b600061020082019050610fbd6000830184610f50565b92915050565b6000610fce82610da8565b9050919050565b610fde81610fc3565b82525050565b6000602082019050610ff96000830184610fd5565b92915050565b600082825260208201905092915050565b7f546869732074696b657420646f6573206e6f7420657869737400000000000000600082015250565b6000611046601983610fff565b915061105182611010565b602082019050919050565b6000602082019050818103600083015261107581611039565b9050919050565b7f4e487b7100000000000000000000000000000000000000000000000000000000600052603260045260246000fd5b7f546869732074696b65742069732066726f6d206f7468657220706572736f6e00600082015250565b60006110e1601f83610fff565b91506110ec826110ab565b602082019050919050565b60006020820190508181036000830152611110816110d4565b9050919050565b7f546869732074696b657420697320616c726561647920626f6f6b656400000000600082015250565b600061114d601c83610fff565b915061115882611117565b602082019050919050565b6000602082019050818103600083015261117c81611140565b9050919050565b7f4e487b7100000000000000000000000000000000000000000000000000000000600052601160045260246000fd5b60006111bd82610d16565b91506111c883610d16565b92508282039050818111156111e0576111df611183565b5b92915050565b7f596f7520617265206e6f74207468652061646d696e0000000000000000000000600082015250565b600061121c601583610fff565b9150611227826111e6565b602082019050919050565b6000602082019050818103600083015261124b8161120f565b9050919050565b7f54686973207469636b657420646f6573206e6f74206578697374000000000000600082015250565b6000611288601a83610fff565b915061129382611252565b602082019050919050565b600060208201905081810360008301526112b78161127b565b9050919050565b7f596f7520617265206e6f7420746865207469636b6574206f776e657200000000600082015250565b60006112f4601c83610fff565b91506112ff826112be565b602082019050919050565b60006020820190508181036000830152611323816112e7565b9050919050565b7f596f7520617265206e6f742068652061646d696e000000000000000000000000600082015250565b6000611360601483610fff565b915061136b8261132a565b602082019050919050565b6000602082019050818103600083015261138f81611353565b9050919050565b7f496e737566696369656e7420616d6f756e74206f6620424e4200000000000000600082015250565b60006113cc601983610fff565b91506113d782611396565b602082019050919050565b600060208201905081810360008301526113fb816113bf565b9050919050565b7f54686973207469636b65742069732066726f6d206f7468657220706572736f6e600082015250565b6000611438602083610fff565b915061144382611402565b602082019050919050565b600060208201905081810360008301526114678161142b565b9050919050565b7f54686973207469636b657420697320626f6f6b656420627920736f6d656f6e6560008201527f20656c7365000000000000000000000000000000000000000000000000000000602082015250565b60006114ca602583610fff565b91506114d58261146e565b604082019050919050565b600060208201905081810360008301526114f9816114bd565b9050919050565b600061150b82610d16565b915061151683610d16565b925082820190508082111561152e5761152d611183565b5b92915050565b7f4e6f2c2074686973207469636b65742069732066726f6d206f7468657220706560008201527f72736f6e00000000000000000000000000000000000000000000000000000000602082015250565b6000611590602483610fff565b915061159b82611534565b604082019050919050565b600060208201905081810360008301526115bf81611583565b905091905056fea26469706673582212208405b885ac60d63925ef8e2bcaba5a3ba88eec21aa42bbde3aafebf2797f8c1164736f6c63430008110033",
  "immutableReferences": {},
  "source": "pragma solidity ^0.8.0;\r\n\r\ncontract MyContract {\r\n    address[16] public tikets;\r\n    uint public balanceWei = 0;\r\n    address payable public admin =\r\n        payable(0xc8D55b1AEe0AF99A99A83Cab4b80fE54032b75c2);\r\n\r\n    struct Booking {\r\n        address bookerAddress;\r\n        uint bookedTimeStamp;\r\n    }\r\n\r\n    mapping(uint => Booking) public bookings;\r\n\r\n    function transferBalanceToAdmin() public {\r\n        require(msg.sender == admin, \"You are not the admin\");\r\n\r\n        admin.transfer(balanceWei);\r\n        balanceWei = 0;\r\n    }\r\n\r\n    function buyTiket(uint tiketIndex) public payable returns (bool) {\r\n        // Comprobacin\r\n        require(tiketIndex >= 0 && tiketIndex <= 15, \"This ticket does not exist\");\r\n        require(msg.value >= 0.01 ether, \"Insuficient amount of BNB\");\r\n        require(tikets[tiketIndex] == address(0), \"This ticket is from other person\");\r\n        require(bookings[tiketIndex].bookerAddress == msg.sender || !isBooked(tiketIndex), \"This ticket is booked by someone else\");\r\n\r\n        balanceWei += msg.value;\r\n\r\n        bool sucess = true;\r\n        tikets[tiketIndex] = msg.sender;\r\n\r\n        return sucess;\r\n    }\r\n\r\n    function isTicketAvailable(uint tiketIndex) public view returns (bool) {\r\n        // Comprobacin\r\n        require(\r\n            tikets[tiketIndex] == address(0),\r\n            \"No, this ticket is from other person\"\r\n        );\r\n\r\n        return true;\r\n    }\r\n\r\n    function setAdmin(address adminAddress) public {\r\n        // Comprobacin\r\n        require(msg.sender == admin, \"You are not he admin\");\r\n\r\n        admin = payable(adminAddress);\r\n    }\r\n\r\n    function transferTicket(uint tiketIndex, address toAddress) public {\r\n        require(\r\n            tiketIndex >= 0 && tiketIndex <= 15,\r\n            \"This ticket does not exist\"\r\n        );\r\n        require(\r\n            msg.sender == tikets[tiketIndex],\r\n            \"You are not the ticket owner\"\r\n        );\r\n\r\n        tikets[tiketIndex] = toAddress;\r\n    }\r\n\r\n    function getTikets() public view returns (address[16] memory) {\r\n        return tikets;\r\n    }\r\n\r\n    function getBalance() public view returns (uint256) {\r\n        return payable(address(this)).balance;\r\n    }\r\n\r\n    function getBalanceWei() public view returns (uint) {\r\n        return balanceWei;\r\n    }\r\n\r\n    function bookTicket(uint tiketIndex) public {\r\n        require(tiketIndex >= 0 && tiketIndex <= 15, \"This tiket does not exist\");\r\n        require(tikets[tiketIndex] == address(0), \"This tiket is from other person\");\r\n        require(!isBooked(tiketIndex), \"This tiket is already booked\");\r\n\r\n        bookings[tiketIndex].bookerAddress = msg.sender;\r\n        bookings[tiketIndex].bookedTimeStamp = block.timestamp;\r\n    }\r\n\r\n    function isBooked(uint tiketIndex) public view returns (bool) {\r\n        if (block.timestamp - bookings[tiketIndex].bookedTimeStamp >= 120) {\r\n            return false;\r\n        } else {\r\n            return true;\r\n        }\r\n    }\r\n}\r\n",
  "sourcePath": "D:\\Master\\Segundo\\NEW\\Blockchain\\Venta de tikets\\bnb1\\contracts\\MyContract.sol",
  "compiler": {
    "name": "solc",
    "version": "0.8.17+commit.8df45f5f.Emscripten.clang"
  },
  "schemaVersion": "3.4.16",
  "updatedAt": "2023-12-28T12:27:50.721Z",
  "networkType": "ethereum",
  "devdoc": {
    "kind": "dev",
    "methods": {},
    "version": 1
  },
  "userdoc": {
    "kind": "user",
    "methods": {},
    "version": 1
  }
}